:100000000C9466000C9483000C9483000C94830081
:100010000C9483000C9483000C9483000C94830054
:100020000C9483000C9483000C9483000C94830044
:100030000C9483000C9483000C9483000C94830034
:100040000C9483000C9483000C9483000C94C400E3
:100050000C9483007D038203820382038203820364
:100060008203820382038203820382038203820368
:10007000820382038203D002820382038203D602B8
:10008000DA02DE02E202E602EA02EE02F302F9021C
:10009000FD020103050309030D03120318031C03EA
:1000A0002003240328032C03320336033A034003BE
:1000B000440348034C03500356035A035E03620390
:1000C00066036A036E03720377037D0311241FBE68
:1000D000CFE5D4E0DEBFCDBF10E0A0E6B0E0E0ECBD
:1000E000FAE002C005900D92A439B107D9F710E0EB
:1000F000A4E9B0E001C01D92A93BB107E1F70E945D
:1001000046040C945E050C9400001092B700109207
:10011000B6001092B5001092B4001092B800089585
:100120001092980010929E001092AB0010929A00CC
:100130001092A90008951092A8001092A4001092A5
:100140009600109299001092970008952091A500B2
:100150003091A600C90183709070892B91F4C90178
:1001600064E670E00E941905892B39F4C90160E941
:1001700071E00E941905892B21F481E080939B0096
:10018000089510929B0008951F920F920FB60F9240
:1001900011242F933F934F935F936F937F938F938C
:1001A0009F93AF93BF93EF93FF932091940030916F
:1001B00095002F5F3F4F309395002093940083B3B9
:1001C0008093A3008091B6009091B7000196909320
:1001D000B7008093B6008091B4009091B50001966D
:1001E0009093B5008093B400285E334009F086C038
:1001F00080919D008F5F80939D00109295001092DA
:1002000094008C3339F480919F008F5F80939F001E
:1002100010929D0080919F008C3339F48091A10051
:100220008F5F8093A10010929F008091A100883180
:1002300061F48091A7008F5F8093A7008091A20056
:100240008F5F8093A2001092A1008091A20088305D
:1002500019F481E08093A2008091A7008D31A9F06C
:100260008E3118F48C31E9F505C08E31D1F08F3123
:10027000C1F522C00E94A60080919C00823089F5C1
:1002800080919B00882369F50AC00E94A600809196
:100290009C00823031F580919B00813011F583E024
:1002A0001CC080919C008430B9F08630A9F0893060
:1002B00099F08B30B1F410C080919C00813061F0D6
:1002C000833051F0853041F0873031F0883021F0B3
:1002D0008A3011F08C3029F48F5F80939C0010924B
:1002E000A70080919C008C3049F48091A5009091EA
:1002F000A60001969093A6008093A500FF91EF9130
:10030000BF91AF919F918F917F916F915F914F912D
:100310003F912F910F900FBE0F901F9018958091D5
:1003200098008093A20080919E008093A700809106
:10033000AB0080939C0080919A0090E08053984F8E
:100340009093A6008093A5000895109295001092B6
:10035000940010929D008091A80080939F0080914E
:1003600096008093A100809197008093A00008954B
:100370008A3018F480E30E94ED0408950E94D704A7
:100380008091A1000E94B8018091A10090E06CEAE8
:1003900070E04AE050E00E942D058CEA90E00E9457
:1003A0000C058AE30E94ED0480919F000E94B80131
:1003B00080919F0090E06CEA70E04AE050E00E947B
:1003C0002D058CEA90E00E940C058AE30E94ED0462
:1003D00080919D000E94B80180919D0090E06CEAA0
:1003E00070E04AE050E00E942D058CEA90E00E9407
:1003F0000C0580E20E94ED048091A000882319F092
:10040000823039F403C080E690E005C086E690E0D3
:1004100002C08CE690E00E940C0508950E94D7046B
:100420008091A2008430C9F0853038F4823079F0B0
:10043000833080F48130E9F407C08630A1F0863043
:1004400078F08730B1F412C082E790E014C086E7FC
:1004500090E011C08AE790E00EC08EE790E00BC0FC
:1004600082E890E008C086E890E005C08AE890E065
:1004700002C08EE890E00E940C058091A7000E94C7
:10048000B8018091A70090E06CEA70E04AE050E08B
:100490000E942D058CEA90E00E940C058EE20E94DD
:1004A000ED0480919C000E94B80180919C0090E036
:1004B0006CEA70E04AE050E00E942D058CEA90E082
:1004C0000E940C0582E990E00E940C058091A50035
:1004D0000E94B8018091A5009091A6006CEA70E09E
:1004E0004AE050E00E942D058CEA90E00E940C0545
:1004F000089580E061E00E940E0280E062E00E94C8
:10050000BE0183E161E00E94D7048FE30E94ED0405
:100510008091A30081FDEDCF8091B6009091B7004E
:10052000865D9640893C910530F583E161E00E944B
:10053000D70481E20E94ED041092B7001092B60039
:100540001092B5001092B4001092B800109298006A
:1005500010929E001092AB0010929A001092A90087
:100560001092A8001092A400109296001092990088
:100570001092970008951092B7001092B600B9CF6C
:100580008091B800E82FF0E0EC33F10508F0B8C036
:10059000E65DFF4FEE0FFF1F0590F491E02D0994EB
:1005A000809197008F5F8093970008958091A800B5
:1005B0008F5F17C08091A8008E5F13C08091A80044
:1005C0008C5F0FC08091A800885F0BC08091A8004D
:1005D000865F07C08091A8008C5E03C08091A80050
:1005E000885D8093A8008091A4008F5F8093A40011
:1005F0000895809196008F5F13C0809196008E5F62
:100600000FC0809196008C5F0BC080919600885F30
:1006100007C080919600865F03C0809196008C5E33
:1006200080939600809199008F5F80939900089540
:1006300080919E008F5F13C080919E008E5F0FC0DF
:1006400080919E008C5F0BC080919E00885F07C0E8
:1006500080919E00865F03C080919E008C5E809397
:100660009E0045C0809198008F5F07C080919800E0
:100670008E5F03C0809198008C5F8093980037C094
:100680008091AB008F5F0FC08091AB008E5F0BC07D
:100690008091AB008C5F07C08091AB00885F03C086
:1006A0008091AB00865F8093AB0021C080919A005F
:1006B0008F5F1BC080919A008E5F17C080919A0057
:1006C0008C5F13C080919A00885F0FC080919A0060
:1006D000865F0BC080919A008C5E07C080919A0063
:1006E000885D03C080919A00805B80939A0080911E
:1006F000A9008F5F8093A90008950E947902089550
:100700000E94790208958091B8008331C1F084314C
:1007100018F48231A0F008C08B3318F4853178F4D6
:1007200009C08B3351F406C0809197008F5F80938E
:10073000970008950E94790208950E947902089511
:100740008091A30081FF2BC02091B4003091B500AF
:10075000C901CC978135910568F40E94830380918B
:10076000B8008F5F8093B8008091AA008F5F80935C
:10077000AA000CC0205A30402135310558F40E949F
:10078000C0028091B8008F5F8093B8001092B700CC
:100790001092B6001092B5001092B40008958091A6
:1007A000B6009091B700865D9640893C910508F0AF
:1007B0006CC08091B8008B33B1F58091A40080FDAE
:1007C00032C08091990080FD2EC08091A90080FDEB
:1007D0002AC01092B800809198008093A200809166
:1007E0009E008093A7008091AB0080939C00809135
:1007F0009A0090E08053984F9093A6008093A500B4
:10080000109295001092940010929D008091A80083
:1008100080939F00809196008093A1008091970023
:100820008093A0001AC01092980010929E0010921F
:10083000AB0010929A001092A9001092A80010929A
:10084000A4001092960010929900109297001092B6
:10085000B7001092B6000E9479021092B700109271
:10086000B6001092980010929E001092AB00109269
:100870009A001092A9001092A8001092A400109261
:10088000960010929900109297000895B89AA19836
:10089000C098A99A0E948E048BE083BF89EF8CBF19
:1008A00089B7826089BF78940E9479020E94A00370
:1008B00080E061E00E940E0280E062E00E94BE01E2
:1008C000F5CF949892B3907F92BB22B3982F9295D4
:1008D0009F70922B92BB959A25E0922F9A95F1F7F3
:1008E000959892B3907F92BB92B38F70982B92BBE6
:1008F000959A2A95F1F7959880EE8A95F1F70895E3
:10090000959A85E08A95F1F79598089581E00E947F
:10091000610480E29EE40197F1F7089581B38F634B
:1009200081BB80E69AEE0197F1F782B3807F82BBAC
:1009300082B3836082BB9498959A95E0892F8A95BB
:10094000F1F79598E0E2FEE43197F1F7959A892F57
:100950008A95F1F7959820EA3FE0F9013197F1F790
:10096000959A892F8A95F1F79598F9013197F1F7C2
:1009700082B3807F82BB919A959A9A95F1F7959868
:10098000C9010197F1F788E20E9461048CE00E949E
:10099000610486E00E9461040E948604089582E05A
:1009A0000E94610480E29EE40197F1F708956230AD
:1009B00061F0633018F4613079F405C0633039F0C8
:1009C000643051F406C0805805C0805403C08C5672
:1009D00001C08C520E9461040895949A92B3907F52
:1009E00092BB22B3982F92959F70922B92BB959AAF
:1009F00025E0922F9A95F1F7959892B3907F92BB4C
:100A000092B38F70982B92BB959A2A95F1F795988F
:100A100080EE8A95F1F70895CF93DF93EC0103C040
:100A20000E94ED04219688818823D1F7DF91CF9130
:100A30000895AA1BBB1B51E107C0AA1FBB1FA61725
:100A4000B70710F0A61BB70B881F991F5A95A9F777
:100A500080959095BC01CD010895FB019F01E8941C
:100A60004230C4F04532B4F44A3029F497FB1EF406
:100A7000909581959F4F642F77270E941905805D7F
:100A80008A330CF0895D8193CB010097A1F716F4AE
:100A90005DE251931082C9010C944E05DC01FC010A
:100AA000672F71917723E1F7329704C07C916D93A2
:100AB00070836291AE17BF07C8F30895F894FFCF13
:100AC000204D455A2000204D45535A00204E4F548A
:100AD0005A004D6F2000446920004D692000446F8A
:100AE00020004672200053612000536F2000202018
:040AF00020002E00B4
:00000001FF
